:020000040800F2
:10000000B00B0020D5000008AD220008BF21000879
:1000100000000000000000000000000000000000E0
:10002000000000000000000000000000692300083C
:100030000000000000000000F52200086B2300080B
:10004000E7000008E7000008E7000008E7000008F4
:10005000E7000008E7000008E7000008E7000008E4
:10006000E7000008E7000008E7000008E7000008D4
:100070006D060008E7000008E7000008E700000838
:10008000E7000008E7000008E700000800000000A3
:10009000E7000008E7000008E7000008E7000008A4
:1000A000E7000008E7000008E70000084129000811
:1000B000E7000008E700000800000000E700000873
:1000C0000348854600F0C0FA00480047852E000826
:1000D000B00B00200448804704480047FEE7FEE7D5
:1000E000FEE7FEE7FEE7FEE7FD230008C10000088B
:1000F00030B50B46014600202022012409E00D46C0
:10010000D5409D4205D31D469540491B2546954047
:1001100040191546521E002DF1DC30BD70B500248B
:100120002546002801DA01244042002901DA012590
:100130004942FFF7DDFFAC4200D04042002C00D026
:10014000494270BDF0B51FB40646002082B0054696
:100150004024019100901BE0019922460F46304651
:1001600000F0EEF9049A059B801A994110D31046CD
:100170001946224600F0D4F9361A8F4101972246DB
:1001800001200021009F00F0CBF938184D4100906C
:100190002046641E0028DFDC019B00982946324679
:1001A00007B0F0BDF0B507460846584087B0C00F0D
:1001B000049048000E46590040084908BC1A88417E
:1001C00005D2384631461E4617460B4602465800B1
:1001D000400810434CD0300D039040055900400DAD
:1001E000490D0590401A0290402872DA1803012147
:1001F000000B09050843019004980092002805D0DF
:1002000001995242002088410092019002984021B9
:100210000A1A0199009800F083F905460C466B46CE
:1002200007CB00F09EF9C0197141039A0E0D00230F
:10023000D71756401A467A40164344D0049A002AEB
:100240002DD0029A012A039A15DC1205C01A914199
:1002500001263605001C7141D20F059ED20700937E
:10026000019202962A46234600F09BF907B0F0BDA2
:1002700038463146FAE71605224A0F46B218C01A28
:10028000B74101210905001C4F4100187F4111466B
:1002900018187941E20F10436D19644113E0E20729
:1002A0006D0815436408C2071443039A012612051A
:1002B000C01A91413605001C7141CE0740083043F9
:1002C0004908C01851412A46234600F05DF9CDE7A0
:1002D000FFE7049801224000C117121A00238B4146
:1002E00004983146C417381AA141EEE730B401240E
:1002F000E407634030BC55E730B40124E4076140B3
:1003000030BC4FE70000E0FFF0B51FB488B00B9998
:100310000998002448400999C00F490049080991EB
:10032000C0070B990090490049080B91099908985A
:10033000A64608431CD00B990A98084318D0099880
:1003400001244000420D4800410D09982405000396
:10035000000B204309900B980003000B20430B90E7
:1003600050181C494018002201901446104605E020
:10037000002001460DB0F0BD032801DA034600E07D
:1003800003239C46C11A0AAE0AE05F0008ADED5B8C
:100390004F00F75B7D430027AA187C41491C5B1E78
:1003A0006145F2DD410004AB5A522104120C0A43AC
:1003B000240C401C0828DFDB01980290009970464D
:1003C00001910090059B049A0799069800F0E9F8BE
:1003D000D0E700000DFCFFFFF0B50C465C4085B097
:1003E000E40FE40703944C00002664085900944687
:1003F000490802460296224321D062460A431ED093
:100400006200570D4A000E032303550D01240246D6
:100410002C492405781B1B0B360B4018234326431D
:10042000614600901C46501AB44103D30098401C0A
:10043000009002E0921800985B41002803DA002047
:10044000014605B0F0BD002001210905074686469A
:1004500011E064461D46141BB54106D36546521B88
:10046000B341744607430C43A646CD0740084908EC
:10047000284392185B4105460D43EAD110461843C4
:1004800013D06046194650407140084306D060467C
:10049000101AB34106D20122002306E000220123F4
:1004A000DB0702E00122D243531000987446010595
:1004B000381C6141029C039D0019694100F064F8F9
:1004C000BFE70000FD0300000EB5054902910021C1
:1004D00000910A460B46019100F063F803B000BD9D
:1004E000330400004A0009030123090B1B051943CB
:1004F000094B10B5520D9A4201DA002010BD064B8F
:1005000034339A4203DC9A1A00F01AF810BD0349FA
:100510005118884010BD0000FF030000CDFBFFFF15
:1005200010B5202A04DB0146203A9140002010BD7E
:10053000914020239C1A0346E3401943904010BD8C
:1005400010B5202A04DB0846203AD040002110BD17
:100550000B46D340D0402024A21A914008431946AC
:1005600010BD10B5202A06DBCB170846203A1041F3
:10057000C1170B4306E00B461341D0402024A21ABA
:1005800091400843194610BD10B5002B08DA00242D
:10059000401C614192185B411A4301D14008400060
:1005A00010BDF0B51FB482B005460C0003D008465C
:1005B00002F0E6FA02E002F0E3FA20300246009090
:1005C00021462846FFF7ACFF049B059A04460F46D8
:1005D00018431143084314D0184610431BD0009809
:1005E00040210A1A18460599FFF7AAFF05460E464C
:1005F000009A05990498FFF793FF084305D001205E
:1006000004E02046394607B0F0BD0020C11705437D
:100610000E432C43374300990E986305401A790521
:10062000E40A00220C43FD0A0A3002D500200146EC
:10063000E9E70105101969410C9C0D9D00196941FC
:10064000FFF7A2FFDFE70000064C0125064E05E09C
:10065000E36807CC2B430C3C98471034B442F7D3E3
:10066000FFF732FD003000082030000810B50248C6
:1006700000F00CFA10BD00005402002070B50446D2
:1006800000688168490720D581681026490700293C
:1006900005DA8168890702D481683143816000F0FE
:1006A000BFFD05460DE000F0BBFD401B0A2808D940
:1006B000A06D3043A065E06D01210843E065084668
:1006C00070BD206880684007EDD4002070BD000038
:1006D00038B50446064805490068FFF709FD604340
:1006E00000E0401E00900028FBD138BD40420F00C2
:1006F000B8000020F8B50446006881688907890FB2
:10070000012925D10168C90722D08168052211403D
:100710001025012601290FD1816802221143816031
:1007200021680320086000F07BFD07460CE000F024
:1007300077FDC01B0A2807D9A06D2843A065E06D8E
:100740003043E0650120F8BD20688068C007EED125
:100750000020F8BDF8B50446006881688907890F54
:10076000012902D10168C90722D18168114A1026E6
:100770001140012500290ED18168294381600120A3
:10078000FFF7A6FF00F04CFD07460CE000F048FD27
:10079000C01B0A2807D9A06D3043A065E06D28432F
:1007A000E0650120F8BD20680068C043C007EDD1B6
:1007B0000020F8BD1700008070B50D460C491646A4
:1007C000441800F01DFC00F057FC06E02A78214692
:1007D000002000F027FC641C6D1C3046761EB6B26B
:1007E0000028F3D100F014FC00F002FC70BD000002
:1007F0000000080803E003780B70401C491C1346F6
:10080000521E92B2002BF6D17047000010B5214A5B
:1008100000219069C305204804D54169022319438A
:100820004161911593699B0505D5436901242343D3
:1008300043616302194393695B0505D54369082445
:1008400023434361E301194393691B0505D54369BC
:100850000424234343616302194393699B0405D530
:1008600043691024234343616302194393699B0343
:1008700004D5446920231C43446119439369DB0375
:1008800005D54369402423434361A002014391619C
:1008900010BD0000002002409807002070B50546FA
:1008A00000F0BEFC0646184C0AE0681C08D0002D7B
:1008B00004D000F0B5FC801BA84201D9032070BD14
:1008C000A069C007F1D1A069800701D50220A0610D
:1008D000A069C00511D4A06980050ED4A0694005A7
:1008E0000BD4A069000508D4A069800405D4A069D0
:1008F000800302D4A069C00303D5FFF787FF01205E
:1009000070BD002070BD00000020024010B50246FE
:100910000849002006234343CC5E944204DB5C1864
:100920000623E35E934204DB401C00B21028F1DB97
:10093000002010BD54000020F8B50546044640359F
:10094000287D0026012808D00120287520688168AC
:100950008907890F01290ED101E00220F8BD016845
:10096000C90708D0A06D20210843A06501260020FA
:1009700028753046F8BDA16DFF2201329143022255
:100980001143A165C1688907890F0091C168890871
:100990008900C1602068816892071143816000F07E
:1009A0003FFC07460EE000F03BFCC01B0A2809D9BB
:1009B000A06D0221884310210843A06500202875FE
:1009C0000120F8BD206880680028ECDB2068C16841
:1009D000009A1143C160A06D80088000401CA06592
:1009E000C5E70000F8B506460D464036317D0129C1
:1009F0000DD00121317501688A68520709D5816DD2
:100A0000202211438165002030750120F8BD0220AD
:100A1000F8BD174B6A68D80547109A42154C8A6A88
:100A20002B6812D05B035B0B1A438A622968490367
:100A300005D5A1680143A1600A20FFF749FE286897
:100A4000800312D5A06838430EE05B035B0B9A432A
:100A50008A622968490302D5A1688143A160286898
:100A6000800302D5A068B843A06000203075F8BDAF
:100A700001100000002701400149012088707047E3
:100A80000000002070470068006C704770B5044695
:100A900000680168490702D54168490705D4016823
:100AA000090733D54168090730D5A16DC90604D4BB
:100AB000A16D012252021143A165C1680C250905EF
:100AC000890F00291AD1216A002917D10168090765
:100AD00014D581684A070121002A08DB4268AA432D
:100AE0004260A06D0A0290430843A06506E0A06D35
:100AF00020221043A065E06D0843E0652046FFF723
:100B0000BBFFA069012801D020680560206801684A
:100B100009060DD5406800060AD5A06D012109041B
:100B20000843A065204600F0FFF821688020086097
:100B300020680168C90613D54168C90610D5616BE4
:100B40001025002902D0C168C90707D0E16D022233
:100B50001143E16505602046FFF794FF20680560BA
:100B600070BD000070B5040006D0A06D26460025BB
:100B70004036002802D006E0012070BDE5653575DD
:100B8000204600F0D3F8A06DC00603D42168886821
:100B9000400705D5A06D10210843A0653575EBE72A
:100BA000A06DFF220132904302221043A0658868A5
:100BB0008207920F5A48012A02D10A68D2072BD124
:100BC000032362689B079A4205D05B429A4202D097
:100BD0005B009A4209D10A69920092080A61216871
:100BE0000A6963681A430A610CE00A699200920874
:100BF0000A6181680F229204914381608168626872
:100C0000114381602168CA6818239A43CA60216829
:100C1000CA68A3681A43CA608168012252069143D8
:100C200081608168228F520611438160206881684B
:100C3000C90004D481680122120711438160206831
:100C4000C168384A1140C1602169E068022923D097
:100C500000210843216A226B4903520011430843D3
:100C6000616B0843A16989030843E169C90308432B
:100C70002168CA681043C860A06A0146FF39C239BA
:100C800005D0E16A08432168CA681043C860606AF9
:100C90000121012802D00BE00421DAE7206A0028B4
:100CA00023D0A06D20221043A065E06D0843E065CD
:100CB000206C012820681FD00169C90703D0016991
:100CC00049084900016120684169C908C9004161BA
:100CD00020684169E26B11434161E565A06D8008C0
:100CE0008000401CA065002070BD2068C268012300
:100CF0001B041A43C260DBE70269FF239B009A438F
:100D0000026120680269636CE66C1A43A36C33438A
:100D10001A430261206802690A430261D3E70000B6
:100D2000002701401902FEFF7047000010B500685F
:100D3000084988420CD10848416B42151143416370
:100D4000002201210C2000F0C3FA0C2000F0B6FABA
:100D500010BD0000002401400010024070B50446A0
:100D6000216800208968490732D425464035297D0D
:100D700001292DD001212975E169012904D02046DE
:100D8000FFF7E8FC002818D1A16D124A1140FF229C
:100D900001321143A1650021E165297522681C21FA
:100DA000116063690422082B08D023685D680D4335
:100DB0005D6021688B6813438B6070BD21684B6850
:100DC00093434B6021684B6818252B434B60F0E739
:100DD000022070BDFEF1FFFF70B5054604464035A8
:100DE000287D012807D001262E752046FFF746FCF6
:100DF000002802D00CE0022070BD2046FFF77AFCEC
:100E0000002805D1A16DFF22013291433143A16534
:100E10000021297570BD000070B54379012B19D0F0
:100E20000125457102230371066834680A4B93401B
:100E30009C430B6849680B4393402343336001682C
:100E40000B68C0249440A3430B60057100214171DD
:100E5000084670BD022070BDFE0F000070B5040092
:100E600004D020790025002802D005E0012070BDC3
:100E70006571204600F008F80220207125610120EC
:100E80002071002070BD000000B500680A4985B0DF
:100E900088420FD10948816B42041143816330209D
:100EA0000090032001900020029005206946000771
:100EB00000F0F4F805B000BD0074004000100240DE
:100EC00018B50468009400688018002904D0143014
:100ED00000900360002018BD0830F9E7F0B54279B2
:100EE000012A1FD0012242710225057103681E6884
:100EF00014468C4026431E60002901680B6813D0FD
:100F000096040C6833400727FF043C40B34204D1E9
:100F1000BC4202D14B682B434B60027100214171EE
:100F20000846F0BD0220F0BD042423400C6838259B
:100F30002C40042BF1D1382CEFD14B681343EBE755
:100F400070B50024024620325179022903D00421D1
:100F5000C16301243CE001680B680E25AB430B60C4
:100F600001680B685B085B000B601A4B01689942D3
:100F700001D1012121E0174B1433994201D11021F5
:100F80001BE0144B2833994201D1891515E0114B10
:100F90003C33994201D189140FE00E4B50339942F2
:100FA00002D10121090408E00A4B6433994202D1BD
:100FB0000121090501E001210906064B083B5960A2
:100FC0000121517100211171816B002900D08847E6
:100FD000204670BD0800024031B500F021F90446FA
:100FE00000F01EF90099001B8842F9D338BD0000BB
:100FF00002484168821591434160704700200240D9
:101000000248416882151143416070470020024048
:1010100003484168012211434160002070470000ED
:1010200000200240F8B5124D0746287C14460E46B3
:10103000012807D0012028740E48FFF72FFC002854
:1010400002D00CE00220F8BD00216961022F09D016
:10105000012F09D0002F09D00648FFF71FFC0021FF
:101060002974F8BD3460FAE73480F8E73470F6E7A5
:101070009807002050C3000005484168C90705D003
:101080000449C1600449C1600020704701207047D5
:1010900000200240EFCDAB8905040302F8B5002320
:1010A0000124A7E027469F403A4070D04D68022DAA
:1010B00001D0122D14D1DD08AD002D1800952D6A38
:1010C0005E07AC46F50E0F26AE46AE406546B5430C
:1010D000AC460E697546AE4065462E43009D2E62B5
:1010E0004D68012D05D0022D03D0112D01D0122DF8
:1010F00016D185680326AC465D00AE46AE40654617
:10110000B543AC46CE687546AE4065462E43866014
:1011100046680D79BE43ED06ED0F9D4035434560B1
:1011200006685F000325BD40AE46AE430D79B44668
:10113000AE07B60FBE4065462E430660C6687546CC
:10114000AE438D68BD403543C5604D68ED0050D558
:101150002B4D6E6B26436E639E082A4DB6007519A3
:10116000AC46AD689E07360F0F27B740BD43052735
:101170003F07B84201D100271AE0234FB84201D1FE
:10118000012715E0214FB84202D1022710E030E0DC
:101190001F4FB84201D103270AE01E4FB84201D1C8
:1011A000042705E01C4FB84201D1052700E00627BF
:1011B000B7402F436546AF60184D2E684F68964381
:1011C000FF0300D516432E606E684F689643BF0339
:1011D00000D516436E60AE684F689643FF0200D597
:1011E0001643AE60EE684F689643BF0200D51643C3
:1011F000EE605B1C0A681546DD4000D052E7F8BD82
:10120000001002400000014000040050000800509F
:10121000000C005000100050001C00500004014061
:101220000148006870470000B400002002480168CF
:10123000491C016070470000B400002010B506484A
:101240000168402211430160002000F007F800F01F
:1012500019F8002010BD00000020024010B504461F
:1012600007487D21C9000068FEF742FF00F054FDE9
:1012700000222146501E00F02BF8002010BD000077
:10128000B800002010B50C48416B012211434163A6
:10129000816B02041143816300221146501F00F04C
:1012A00017F800221146901E00F012F80022114695
:1012B000501E00F00DF810BD00100240C106C90E0E
:1012C00001208840014908607047000000E100E00B
:1012D00010B500F0EDFF10BDF8B5664907460125D1
:1012E0000020ED03624B634A4031102F6FD011DCB8
:1012F000012F77D0022F6CD0042F6BD0082F24D170
:10130000C9680324240321407BD0BD026C10A9428C
:101310007CD0A0E00326584C3604202F0BD0402F61
:1013200035D0FF3F012F10D1C968314069D07C040E
:10133000A1426BD096E00B690969012731403F0457
:10134000B94203D1990559E02846F8BD01256D043D
:10135000A94203D19907F8D54848F8BDB142FCD15C
:1013600011688903F9D511680320000501400120A7
:101370000005091A09D0091A05D0814201D1404857
:10138000F8BD2046F8BD3F48F8BD3F48F8BDC968E4
:101390000125AD06294006D0A942F7D191688907F9
:1013A000F4D53A48F8BD11688901FBD5D068D168F9
:1013B0008002374D000F2D5C0802810FD068491C58
:1013C000C0030AD41068C00605D5204606E045E0F3
:1013D00008E023E030E0184600E02E486843FEF7BE
:1013E00087FEF8BDCC68A407A40F0CD0022C0DD04A
:1013F000012C10D0032CF4D1096989050029A3DB45
:10140000F8BD16E002E000F0D7F9F9E711684907E6
:10141000F6D51846F4E700F0DFF9F1E7CC680C26C2
:10142000344006D0082CF1D0042CF4D00C2CE3D09E
:10143000E6E700F0B1F9E3E7CC680326B6023440F2
:10144000F7D00127FF02BC42E0D07A109442E2D0EC
:10145000B442D1D0D4E7A142DDD0D1E7916B4902AB
:10146000E7D4CDE7012212049142D4D0C8E70000AE
:101470000024F4000010024000093D0088900000A4
:1014800020A1070040420F0080841E00006CDC0297
:10149000EC2F000800127A00F8B5044600785E4D83
:1014A000800672D55C4E0027403EB06BC00004D46D
:1014B000B06BA9050843B063012758480168C90506
:1014C00011D40168821511430160FFF7A9FE009055
:1014D00005E0FFF7A5FE0099401A642837D84F4869
:1014E0000068C005F5D532680321090560680A4027
:1014F0000140914208D08103890F032904D131684A
:10150000890301D50120F8BD2A69032109040A4095
:1015100022D0084090421FD0207880061CD5286930
:101520002A6988430121C9040A432A612A698A4336
:101530002A612861C0050FD5FFF772FE009008E010
:10154000FFF76EFE0099411A3548814201D9032008
:10155000F8BD28698005F3D561688803800F0328EA
:1015600005D132680005824301400A433260286990
:10157000032261681204114008432861002F04D03F
:10158000B06B012109078843B0632078C00705D0FC
:10159000E868A168800880000843E8602078800738
:1015A00005D5E8680C218843E1680843E8602078A5
:1015B000400706D5E868032189028843216908436A
:1015C000E8602078000706D5E8680321090388430E
:1015D00061690843E8602088C00506D5E8680321F2
:1015E00009048843A1690843E8602078400606D5CD
:1015F000E868012189068843216A0843E860207869
:10160000000606D5E868032189048843E169084398
:10161000E8600020F8BD000040100240007000406B
:1016200088130000F8B5054653480E460068C00709
:10163000C00FB0420AD250480168490849003143FE
:1016400001600068C007C00FB0426FD128784B4CD2
:10165000800705D5E068F0218843A9680843E06069
:101660002878C00752D06868022817D0032818D0FD
:101670002168012818D08905002957DAE16889080E
:1016800089000143E160FFF7CBFD69680746022945
:1016900012D003291CD0012926D033E02168890308
:1016A000EAE721688901E7E74907E5E7FFF7B8FDC1
:1016B000C11B3348814223D8E0680007800F02280D
:1016C000F4D123E0FFF7ACFDC11B2D48814217D8B0
:1016D000E0680007800F0328F4D117E0FFF7A0FDB2
:1016E000C11B274881420BD8E0680007800F012802
:1016F000F4D10BE0FFF794FDC11B2148814201D9D1
:101700000320F8BDE0680007800FF3D11A48016894
:10171000C907C90FB1420BD90168490849003143D3
:1017200001600068C007C00FB04201D00120F8BDC1
:101730002878400706D5E068072109028843E96850
:101740000843E0602878000707D5E0680721C90250
:1017500088432969C9000843E06000F03DF8E1686A
:10176000084A0906090F515CC84007490860002073
:10177000FFF774FD0020F8BD002002400010024079
:1017800088130000DC2F0008B80000200148006822
:1017900070470000B8000020044805490068C96887
:1017A000044A4905490F515CC8407047B800002001
:1017B00000100240F52F0008044805490068C96878
:1017C000044A8904490F515CC8407047B8000020A2
:1017D00000100240F52F000810B5184AD1680C20FF
:1017E000084004280BD0082810D00C2810D05068CE
:1017F0000004410F0120C003491C884010BD10683F
:10180000C00601D50E4810BD0E4810BD0E4810BDD3
:1018100088020E4B000F185C0902D368890F491C1F
:10182000DB0301D5084A05E01268D20601D5044A57
:1018300000E0044A5043FEF75BFC10BD001002407C
:1018400000093D000024F40000127A00EC2F00088B
:10185000F8B504460078FE4DC0074AD0E868000796
:10186000800F022807D0E8680007800F032809D1FD
:10187000E868C00306D5286880033AD56068002868
:1018800073D036E0012062680004824203D12968E7
:101890000143296011E0052301211B0489049A42B8
:1018A0002A6802D10A432A60F1E782432A602A6843
:1018B00002400092286888432860606800280CD0A5
:1018C000FFF7AEFC064604E0FFF7AAFC801B642885
:1018D0007ED828688003F7D50BE0FFF7A1FC064609
:1018E00004E0FFF79DFC801B6428F1D82868800382
:1018F000F7D42078800741D5E8681F270007800FBC
:101900003F02012807D0E8680007800F032809D1AB
:10191000E868C00306D42868400717D5E0680128A6
:1019200023D113E0E068002817D0296809229143E9
:1019300001432960FFF774FC064604E0FFF770FCE2
:10194000801B0228C4D828684007F7D56868216939
:10195000B84309020843686010E028684008400066
:101960002860FFF75DFC064605E095E0FFF758FCB0
:10197000801B0228ACD828684007F7D42078C0061E
:1019800072D5E868B34E0007800F0AD0E0690028DE
:101990002868B1495AD008432860FFF741FC074640
:1019A00044E02868800502D5E069002874D0606AA8
:1019B00069683140884212D900F09EFC0028AFD1FE
:1019C0006868616AB043084368606868000200E0C4
:1019D000DCE0218C000A0906084368600FE06968B2
:1019E000B143014369606868218C0002000A09065E
:1019F00008436860606A00F07FFC002890D1606A4C
:101A0000410B0120C003491C8840E96809060A0F00
:101A10009249895CC840924908600020FFF71EFC8B
:101A200022E0FFF7FDFBC01B02288BD82868800549
:101A3000F7D56868616AB043084368606868218CBC
:101A40000002000A0906084368600DE08843286028
:101A5000FFF7E6FB064604E0FFF7E2FB801B0228E7
:101A600088D828688005F7D420787E4E000723D5D3
:101A700060690028306910D0012108433061FFF708
:101A8000CFFB074604E0FFF7CBFBC01B02287DD845
:101A900030698007F7D50FE001E140084000306170
:101AA000FFF7BEFB074604E0FFF7BAFBC01B0228A6
:101AB0006CD830698007F7D42078400760D5A86BD0
:101AC0000027C00005D4A86B012109070843A863BB
:101AD000012765480168C90511D4016882151143C1
:101AE0000160FFF79DFB009005E0FFF799FB00996F
:101AF000401A64284AD85C480068C005F5D55648A5
:101B0000A268824203D131690143316111E00121B0
:101B10008902002A07D005231B029A4203D13269A9
:101B20000A433261EFE732698243326130698843A8
:101B30003061A06800280ED0FFF772FB009006E02D
:101B4000FFF76EFB0099411A484881421ED8306960
:101B50008005F5D50DE0FFF763FB009006E0FFF789
:101B60005FFB0099411A414881420FD830698005D6
:101B7000F5D4002F04D0A96B012000078143A9638D
:101B80002078800630D53A48421400E080E0A16910
:101B9000002916D0AB6801210B43AB606B6B0B4384
:101BA0006B63016A11430162FFF73AFB064604E0EA
:101BB000FFF736FB801B02286AD8A8688007F7D594
:101BC00012E0A96849084900A960016A91430162CD
:101BD000FFF726FB064604E0FFF722FB801B0228E6
:101BE00056D8A8688007F7D4A06A002855D0E968BD
:101BF0000907890F032952D00126360602282868D2
:101C000005D0B0432860FFF70BFB044642E0B04329
:101C10002860FFF705FB074604E0FFF701FBC01B48
:101C2000022835D828688001F7D4216BE06AEA6879
:101C30000843616BFD231B049A4311430843E8608A
:101C4000286830432860FFF7EBFA044617E00000ED
:101C50000010024000E0000000010000DC2F00083E
:101C6000B8000020401002400070004088130000BF
:101C700000000140FFF7D4FA001B022808D82868AA
:101C80008001F7D509E0FFF7CBFA001B022801D944
:101C90000320F8BD28688001F5D40020F8BD01209C
:101CA000F8BD0000042204490428086902D09043CA
:101CB000086170471043FBE700E000E070B5134C8B
:101CC0007D21208BC90001250026884202D2401CBC
:101CD000208312E00D49268325710122891D0C48BD
:101CE00000F076F9E5710220E0630A496572002090
:101CF0000E54401CC0B20A28FAD3608B642802D26A
:101D0000401C608370BD6683657170BD000000205B
:101D1000C802002088010020094910B5401E8842F1
:101D200001D9012010BD074C60610321081F00F09C
:101D3000BFFA0020A06107202061002010BD000034
:101D4000FFFFFF0000E000E010B5FFF7B7FF10BD98
:101D500070477047F8B5044600680168FF222132D9
:101D600091430160206881684908490081602168C9
:101D70008868224646062046002340300F25603200
:101D8000002E1BDA8E684027BE438E60616E0029EC
:101D90000AD00C488863606EFFF7D2F800280BD099
:101DA000606E816B884707E04383206805622020CE
:101DB00090722046FFF7CDFF0020F8BD43830D62EF
:101DC000F5E700009125000870470000F8B50268AB
:101DD0000446D06911680607360F07D1830605D57A
:101DE0008B0603D5204600F0F0FBF8BD9568202354
:101DF000002E65D0EE07F60FFF2721370F4037433F
:101E00005ED0C70706D0CF0504D501271762E26E62
:101E10003A43E266820708D5EA0706D0276802221D
:101E20003A62E26E04273A43E266420708D5EA07BF
:101E300006D0256804222A62E26E02252A43E26661
:101E4000020709D50A461A40324305D02368082202
:101E50001A62E36E1343E366E26E002AC5D0800681
:101E600004D5880602D5204600F0AFFBE06E0007DF
:101E700003D42068806840061CD5204600F096FBFD
:101E800020688168490611D5826840218A438260B2
:101E9000606E00280AD01D498163606EFFF750F81C
:101EA0000028A2D0606E816B8847F8BD2046FFF7FE
:101EB0008BFFF8BD2046FFF787FF0020E066F8BDE6
:101EC0002646C7026036002F0ADA6D0208D50120C7
:101ED000000510627372B3722046FFF739FFF8BD38
:101EE000050605D50D0603D5204600F0C5FCF8BD56
:101EF0004006FCD54806FAD52046146840218C439C
:101F00001460737200F05AF9F8BD00007D250008D6
:101F100070B5040005D025466035687A002802D0E7
:101F200006E0012070BD00202872204600F026F84F
:101F30002420687220680168490849000160606ACD
:101F4000002802D0204600F083FA204600F07CFBF7
:101F50000128E7D0206841680922D20291434160FC
:101F6000206881682A2291438160206801680122EB
:101F700011430160204600F0D1FA70BD00B5006841
:101F8000114985B088421DD11048416B012292034E
:101F90001143416303204002009002200190002081
:101FA0000290032003900420049005206946000756
:101FB000FFF774F8002202211B20FFF789F91B208C
:101FC000FFF77CF905B000BD003801400010024069
:101FD000F0B5034660339C7A202C44D100290BD005
:101FE000002A09D0012584682D03AC4206D1066978
:101FF000002E03D1CE0701D00120F0BD1E7A012EA4
:1020000031D001261E724165014640310A834A8360
:10201000FF27AC4204D10269002A12D1134A0EE014
:102020007F22002C08D001252D07AC420AD104697B
:10203000002C04D03F2202E00469002C01D08A83E6
:1020400000E08F830021C16622229A721972016812
:102050008A6832438A6000680168FF222132114396
:1020600001600020F0BD0220F0BD0000FF01000073
:10207000F8B51D4800258572C179012932D1811D2D
:102080000A781A49447A0B460227663B002C09D08D
:10209000AA2A02D0552A02D004E00A7005E04A704C
:1020A0004572C7630C78AA2C08D14C78552C05D101
:1020B000C46B1E19203EF277641CC463DA78C46BCB
:1020C000921DA24208D10A781A7049785970C763E4
:1020D000C57101210172417203490122891D044821
:1020E000FFF776FFF8BD0000000000208801002007
:1020F000C8020020FFB5064604466036707A83B0F9
:102100000D46202858D1002D0CD00598002809D064
:102110000120A1680003814207D12069002804D171
:10212000E80702D0012007B0F0BD307A012843D083
:10213000012030720020E06621207072FFF770F8F5
:10214000019027464037059838820598788218E034
:10215000788A401E788206980090002280212046CE
:10216000019B00F0BCFB002818D10120A1680003EE
:10217000814202D12069002812D021682878886223
:102180006D1C788A0028E3D1069800900022402137
:102190002046019B00F0A3FB002808D00320C2E7E3
:1021A00028882168C005C00D8862AD1CE9E72020A1
:1021B000707200203072B6E70220B4E77047FEE785
:1021C0000170090A417070471CB517481549016034
:1021D00000210122D2070164426081600722C263AC
:1021E000C1600162012241620261FF22C162C2320A
:1021F0008262016341638161042281634261C16142
:10220000FEF7B0FC002800D0FEE70848009001204F
:102210000003019069460448FEF7E4FB002800D063
:10222000FEE71CBD002401405402002000000448C9
:102230001CB50F490D4808600846FEF70FFE002840
:1022400000D0FEE700200090024601906946084851
:10225000FEF7E2FD002800D0FEE7102269460448A0
:10226000FEF7DAFD002800D0FEE71CBD0074004038
:10227000B402002010B50C480A4901604B21C90185
:10228000416000218160C16001618161C1610C22F6
:10229000016242614162FFF73BFE002800D0FEE789
:1022A00010BD000000380140C80200207047000047
:1022B0008307FF22DB0E9A408907090E9940002808
:1022C0000BDA0007000F0838830808489B0018182D
:1022D000C36993430B43C3617047830804489B0061
:1022E0001B181868904308431860704700ED00E021
:1022F00000E400E07047000070B517490023CA6889
:102300001206120F18D18A6B154CD500134A02D54C
:102310001268224009E08E6B01252D072E438E6343
:1023200012688E6B2240AE438E63A24204D1032119
:102330008903884200D101230A48016849084900FD
:10234000194301600068C007C00F984201D0012006
:1023500070BD002070BD0000001002400070004001
:102360000018000000200240704710B5FEF75EFF25
:10237000FFF7EAFC10BD000030B51F489DB00168B2
:102380000322D2029143C2148918016002200090F6
:1023900001250A9000240395400510210D900B940F
:1023A0000C9404916846FFF753FA002800D0FEE72A
:1023B0000F200E9003200F9010941194012112947D
:1023C0000EA8FFF72FF9002800D0FEE713A81395F9
:1023D0001594FFF761F8002800D0FEE7FFF7D6F963
:1023E0007D21C900FDF784FEFFF796FC0420FFF76E
:1023F00059FC1DB030BD000000700040104801685D
:10240000821511430160C1680E4A1140C160016824
:102410000D4A1140016081684908490081600168E6
:102420000122920491430160C168FD22120491438C
:10243000C160002101610549C00388607047000048
:10244000001002400C40FF88F6FFF6FE00ED00E0B1
:1024500010B5818CC90707D001684A6801235B0465
:102460009A43836A1A434A60818C890707D50168B9
:102470004A6801231B049A43C36A1A434A60818C49
:10248000490707D501684A6801239B049A43036BF7
:102490001A434A60818C090707D501684A680123FD
:1024A000DB039A43436B1A434A60818CC90607D504
:1024B0000268916801231B039943836B1943916060
:1024C000818C890607D501688A6801235B039A43DA
:1024D000C36B1A438A60818C490612D503685A6817
:1024E00001210905046C8A4322435A60026C8A4226
:1024F00007D10268516803235B059943436C194374
:102500005160818C090607D501684A680123DB0404
:10251000806C9A4302434A6010BD0000F8B5002663
:102520000446C666FEF77CFE054620680068124F2A
:10253000000709D501212B460022490520460097B6
:1025400000F0CDF900280DD12068006840070BD5B8
:1025500001212B46002289052046009700F0BFF993
:10256000002801D00320F8BD202060346072A072E2
:1025700026720020F8BD0000FFFFFF0110B5806A41
:102580000022014640314A834A82FFF71DFC10BDFC
:1025900010B5806A00225A210A5202680F21116286
:1025A00020226A210A54FFF7D4FB10BD01680A6893
:1025B000FF2321339A430A6001688A685208520057
:1025C0008A60202160308172704770B502464032C7
:1025D00001466031938B8D7A0C460168222D05D01F
:1025E0008869082210438861022070BD496A01266B
:1025F0008568360389B2B54202D10569002D0BD03A
:102600001940436D5D1C45651970518B491E0904C5
:10261000090C518307D015E0456D19402980416DA3
:10262000891C4165F1E701680A68FF2321339A4359
:102630000A6001688A68520852008A602021A172EB
:10264000FFF716FD002070BDFEB5044601688068E6
:102650002269E36910436269102700261A43104378
:102660000A683546784B1A4002430A602068416880
:10267000032212039143E26811434160734A2168C7
:10268000A069914201D0226A10438A680B231B0281
:102690009A4302438A606E4A20686E4990420CD188
:1026A000C8688007800F06D0012843D002283FD099
:1026B000032826D124E0012723E0674A90420AD16B
:1026C000C8680C21084031D0042833D008282FD006
:1026D0000C2816D114E0614A904227D0604A9042FB
:1026E00024D05A4A90420CD1C9680320800201408C
:1026F0001CD01015091A1DD0091A19D0814200D119
:1027000008270220FEF7E8FD0190504B514922684E
:102710004039D81300929A4235D1002F0CD0022FA5
:102720000DD0042F12D0082F1CD113E00027E8E7AA
:102730000227E6E70427E4E7FFF72EF808E0086839
:10274000C00601D5474805E0474803E0FFF744F8D5
:10275000002873D0626851005118814202D81103D9
:10276000814201D2012569E0010E060250080023D2
:1027700030185941FDF7E6FC032109023B4A411A92
:10278000914259D9EEE7E26982422DD13B0000F037
:102790000EFA0906080B24192424241F240001988A
:1027A00012E0FFF709F80FE008686168C00602D57B
:1027B00048082F4A01E02F4A48088018FDF798FC86
:1027C00086B20BE0FFF708F8616840004A08F4E7BA
:1027D0006168012248081204EFE701253109090167
:1027E0003007400F084327E03B0000F0E0F90907FD
:1027F0000A0D061D060606290600B3E7FEF7CCFF04
:1028000014E0FEF7D9FF11E008686168C00602D540
:102810004A08144801E014484A081018FDF768FCFB
:1028200081B20098C16009E0FEF7D6FF61684A08EE
:102830008018FDF75DFC80B22168C8602846FEBDA7
:1028400061684A08E9E70000F369FFEF00480040CB
:10285000003801404010024000440040004C00405D
:102860000050004000093D000024F400FFFC0F0070
:1028700000127A000048E8016921095C212901D091
:102880000220704702464032518A002912D00123AB
:1028900081681B03994202D10169002915D0C16CDE
:1028A0004B1CC364006809788162508A401E5082C4
:1028B0000020704701680A6880239A430A60006814
:1028C0000168402211430160F2E7C16C0368098886
:1028D000C905C90D9962C16C891CC164E5E7FFB5E2
:1028E00081B017460E4604460A9D1DE0681C1BD0A9
:1028F000002D05D0FEF794FC0499401AA84213D984
:1029000020680168FF22A13291430160206881683C
:10291000490849008160202060346072A072002064
:102920002072032005B0F0BD2068C169304688439D
:1029300004D00020B842D9D00020F3E70120F9E705
:1029400010B50248FFF742FA10BD0000C80200208F
:10295000FEB5874C0025207A00287DD0002020720B
:1029600084480078AA2828D1824841785529FAD18C
:1029700001468778C8784E790A79029293198A7944
:10298000091800919B18310201938918C13F89B23F
:102990003B0000F00CF907051321757DCFD1D30062
:1029A000009B01985D791F792B023B439842DAD155
:1029B00002982070E6812282A181BFE0009B0198ED
:1029C0005D791F792B023B439842F6D102986070E3
:1029D000A682E2826182B1E0664B002104E05A18CF
:1029E00012795519491C89B28142F8DB19184879C6
:1029F000097900020843E9B2206481423FD10022F4
:102A00001046062148435B49594B46183579243313
:102A1000D0311D700D54471875795D7008467D7072
:102A200055006038405B194600F026FA5149703174
:102A30004853B0791870B870F0795870F87008463B
:102A40004B492030405B243100F016FA494990315F
:102A50004853307A187000E089E03871707A587005
:102A60000B46434978712033585B243100F004FA57
:102A7000521CD2B25853102AC2D30120E0705DE03C
:102A80003C4901206022D0310003FDF795FE55E05E
:102A9000384E5520663E3070AA207070D220B0703B
:102AA0006020F07000F052FA314B0022243331489C
:102AB00057007030C15B2E482430FFF781FB104671
:102AC000062670432B4E1978663E86193171587868
:102AD000707128489030C15B25482430FFF770FBA7
:102AE0001878B0715878F0712248B030C15B204836
:102AF0002430FFF765FB18783072521C5878D2B238
:102B00007072102AD3D31B49042066390A5C401C1A
:102B10005519C0B26328F9D916482912801F0571CA
:102B200041710146FF30144B66226039AD30FFF72A
:102B3000E1FA03E0012000E00020E07200200D4AED
:102B4000014666321154401CC0B20A28FAD3094A21
:102B500000201154401CC0B26628FAD30449012257
:102B6000891D0648FFF734FA0120E071A072FEBD0E
:102B7000000000202201002088130000C80200206D
:102B80002021020C01D010211046020A01D010466B
:102B90000839020901D01046091F820801D01046E9
:102BA000891E420801D0881E7047081A704730B449
:102BB0007446641E2578641CAB4200D21D46635DDA
:102BC0005B00E31830BC184702E008C8121F08C1B8
:102BD000002AFAD170477047002001E001C1121F9E
:102BE000002AFBD170470000F0B587B09748FFF787
:102BF000B1F80026964F0096019602960396F87853
:102C00003C4654343546012814D1002091494200F5
:102C10008B5A0621414363528E4B091920339B5A2C
:102C20004B808C4B401C40339A5AC0B28A8010288B
:102C3000ECD3FE70B87801281ED18448BE70743879
:102C4000FEF7CAF881487438FDF71DFFFF214B31AC
:102C5000B8634843FF212D31FDF74AFA7E496423CA
:102C60004A8BC98B801A5843891AFDF757FA1E30D0
:102C7000F862386B401C38637879012804D17348B6
:102C80007E717438FEF76AF8387901287DD100200A
:102C900038716E487438FEF79FF8386B002874D08E
:102CA000F86AB862002801DA40424042B8836B48B3
:102CB0007863F86438651C20385EFDF727FE788459
:102CC00006214843215E041906200491205E022655
:102CD000091A05910820205EA65F801BFDF71EFAE9
:102CE000BA8B0499891A4843801900B20691F88377
:102CF00004900A200426205EA65F0599801BFDF73C
:102D00000DFA06994843801901B23984FA6C049887
:102D10001018F8643A6D511839653A78002ABA8962
:102D200001D0801A00E08018F86478780028788A4A
:102D300001D0081A00E008183865444800221146FE
:102D40001438FB6CFEF7BCF8404800211438FEF73D
:102D5000C5F83E480022102114383B6DFEF7B0F84C
:102D60003A4810211438FEF7B9F855216846017029
:102D7000AA214170D12181700A26C670B86A002844
:102D800004DB002269460A7104E057E0012269462B
:102D90000A7140424871F86C0590FDF795FB304A86
:102DA000304BFDF7B1FA00222F4BFDF715FB002247
:102DB0002E4BFDF7A1FA00222D4BFDF7A5FAFDF7EA
:102DC00091FB04467864386D0490FDF77DFB244A3E
:102DD000244BFDF799FA0022234BFDF7FDFA002260
:102DE000224BFDF789FA0022214BFDF78DFAFDF702
:102DF00079FB220A6946B8648A71CC71020A0A72A8
:102E000048720598000A88720598C8720498000AEA
:102E100008730498487301200A18D278401C551989
:102E20008642F9DA08468D732912C1730146114BA7
:102E300010220648FFF75EF900203863044901229A
:102E4000891D0248FFF7C4F807B0F0BDC802002092
:102E500000000020920100206000F81FE40C000038
:102E6000AB3E575BB1FF2D4000408F4000C051404A
:102E70000000594088130000487809780002084390
:102E80007047000008B5FEF7D9F9FFF775FA294831
:102E9000C16A01252943C162C06A28400090FFF73A
:102EA000C7F9FFF7E7F9FFF78FF900F06BF8602239
:102EB00021492248FDF79EFC1F49214B084660220C
:102EC0007038FFF717F91F4B0022104606214843C0
:102ED00019491D4F0C5C1C704618707858705400CE
:102EE000385B1849FFF7C8FF3853B0781870F0788E
:102EF00058702037385B1349FFF7BEFF38533079DD
:102F0000187070793E4658702036305B0D49FFF7D7
:102F1000B3FF30530B4C521C243CD2B2E570102A44
:102F2000D3D3FFF715FDA07A0028FAD0FFF75CFE97
:102F3000F7E70000001002403803002000100808E6
:102F4000881300002400002092010020F0B50C4CF2
:102F500000202646094A20362746403706214143AD
:102F60004300555A8918E5524D88F552401C89880E
:102F7000C0B2F9521028F1D3F0BD00005400002077
:102F80009201002010B5124C002223461146114830
:102F9000FDF796FF00210F48FDF7A0FF2346002212
:102FA00010210C48FDF78CFF10210A48FDF796FF11
:102FB000084800216038FDF7BFFC7D20C000FEF707
:102FC0000BF80448012204491430FFF701F810BD42
:102FD000FF0F0000B40200200600002000000000E7
:102FE00000000000010203040607080903040608A4
:102FF0000C10182030000000000102030400000043
:103000002030000800000020BC000000C82B000891
:10301000DC300008BC000020F40A0000D82B0008B7
:10302000000000000000000100010100000000009D
:103030000000000000000000000000000000000090
:103040000000000000000000000000000000000080
:1030500000000000FF0F0000000000000200000060
:103060000000000000000000000000000000000060
:10307000000000007D00000000005600000000007D
:103080004B00000000004200000000003A00000079
:1030900000003100000000002A00000000002100B4
:1030A000000000001600000000000F0000000000FB
:1030B000070000000000FEFF00000000F5FF000018
:1030C0000000ECFF00000000E4FF00000000CEFF65
:0C30D000000000000000000080841E00D2
:04000005080000C12E
:00000001FF
